{
  "_format": "hh-sol-artifact-1",
  "contractName": "ArcPayInvoice",
  "sourceName": "contracts/ArcPayInvoice.sol",
  "abi": [
    {
      "inputs": [
        {
          "internalType": "address",
          "name": "usdcAddress",
          "type": "address"
        }
      ],
      "stateMutability": "nonpayable",
      "type": "constructor"
    },
    {
      "anonymous": false,
      "inputs": [
        {
          "indexed": false,
          "internalType": "uint256",
          "name": "id",
          "type": "uint256"
        },
        {
          "indexed": false,
          "internalType": "address",
          "name": "merchant",
          "type": "address"
        },
        {
          "indexed": false,
          "internalType": "uint256",
          "name": "amount",
          "type": "uint256"
        },
        {
          "indexed": false,
          "internalType": "string",
          "name": "note",
          "type": "string"
        }
      ],
      "name": "InvoiceCreated",
      "type": "event"
    },
    {
      "anonymous": false,
      "inputs": [
        {
          "indexed": false,
          "internalType": "uint256",
          "name": "id",
          "type": "uint256"
        },
        {
          "indexed": false,
          "internalType": "address",
          "name": "payer",
          "type": "address"
        },
        {
          "indexed": false,
          "internalType": "address",
          "name": "merchant",
          "type": "address"
        },
        {
          "indexed": false,
          "internalType": "uint256",
          "name": "amount",
          "type": "uint256"
        }
      ],
      "name": "InvoicePaid",
      "type": "event"
    },
    {
      "inputs": [
        {
          "internalType": "address",
          "name": "merchant",
          "type": "address"
        },
        {
          "internalType": "uint256",
          "name": "amount",
          "type": "uint256"
        },
        {
          "internalType": "string",
          "name": "note",
          "type": "string"
        }
      ],
      "name": "createInvoice",
      "outputs": [],
      "stateMutability": "nonpayable",
      "type": "function"
    },
    {
      "inputs": [
        {
          "internalType": "uint256",
          "name": "",
          "type": "uint256"
        }
      ],
      "name": "invoices",
      "outputs": [
        {
          "internalType": "uint256",
          "name": "id",
          "type": "uint256"
        },
        {
          "internalType": "address",
          "name": "payer",
          "type": "address"
        },
        {
          "internalType": "address",
          "name": "merchant",
          "type": "address"
        },
        {
          "internalType": "uint256",
          "name": "amount",
          "type": "uint256"
        },
        {
          "internalType": "bool",
          "name": "paid",
          "type": "bool"
        },
        {
          "internalType": "string",
          "name": "note",
          "type": "string"
        }
      ],
      "stateMutability": "view",
      "type": "function"
    },
    {
      "inputs": [],
      "name": "nextInvoiceId",
      "outputs": [
        {
          "internalType": "uint256",
          "name": "",
          "type": "uint256"
        }
      ],
      "stateMutability": "view",
      "type": "function"
    },
    {
      "inputs": [
        {
          "internalType": "uint256",
          "name": "invoiceId",
          "type": "uint256"
        }
      ],
      "name": "payInvoice",
      "outputs": [],
      "stateMutability": "nonpayable",
      "type": "function"
    },
    {
      "inputs": [],
      "name": "usdc",
      "outputs": [
        {
          "internalType": "contract IERC20",
          "name": "",
          "type": "address"
        }
      ],
      "stateMutability": "view",
      "type": "function"
    }
  ],
  "bytecode": "0x60806040523480156200001157600080fd5b506040516200120d3803806200120d8339818101604052810190620000379190620000e8565b806000806101000a81548173ffffffffffffffffffffffffffffffffffffffff021916908373ffffffffffffffffffffffffffffffffffffffff160217905550506200011a565b600080fd5b600073ffffffffffffffffffffffffffffffffffffffff82169050919050565b6000620000b08262000083565b9050919050565b620000c281620000a3565b8114620000ce57600080fd5b50565b600081519050620000e281620000b7565b92915050565b6000602082840312156200010157620001006200007e565b5b60006200011184828501620000d1565b91505092915050565b6110e3806200012a6000396000f3fe608060405234801561001057600080fd5b50600436106100575760003560e01c80631494ff971461005c5780633e413bee146100785780634e6d1405146100965780636ff2a953146100cb578063ac60a6cd146100e9575b600080fd5b610076600480360381019061007191906108ac565b610105565b005b6100806102b0565b60405161008d919061097a565b60405180910390f35b6100b060048036038101906100ab9190610995565b6102d4565b6040516100c296959493929190610a7a565b60405180910390f35b6100d36103e5565b6040516100e09190610ae2565b60405180910390f35b61010360048036038101906100fe9190610995565b6103eb565b005b6040518060c001604052806001548152602001600073ffffffffffffffffffffffffffffffffffffffff1681526020018473ffffffffffffffffffffffffffffffffffffffff168152602001838152602001600015158152602001828152506002600060015481526020019081526020016000206000820151816000015560208201518160010160006101000a81548173ffffffffffffffffffffffffffffffffffffffff021916908373ffffffffffffffffffffffffffffffffffffffff16021790555060408201518160020160006101000a81548173ffffffffffffffffffffffffffffffffffffffff021916908373ffffffffffffffffffffffffffffffffffffffff1602179055506060820151816003015560808201518160040160006101000a81548160ff02191690831515021790555060a08201518160050190816102509190610cff565b509050507f01dcc7aec148735ad115574b756e3c73489f50d98d2b920e1b50f4b8d2eb8d1860015484848460405161028b9493929190610dd1565b60405180910390a1600160008154809291906102a690610e4c565b9190505550505050565b60008054906101000a900473ffffffffffffffffffffffffffffffffffffffff1681565b60026020528060005260406000206000915090508060000154908060010160009054906101000a900473ffffffffffffffffffffffffffffffffffffffff16908060020160009054906101000a900473ffffffffffffffffffffffffffffffffffffffff16908060030154908060040160009054906101000a900460ff169080600501805461036290610b2c565b80601f016020809104026020016040519081016040528092919081815260200182805461038e90610b2c565b80156103db5780601f106103b0576101008083540402835291602001916103db565b820191906000526020600020905b8154815290600101906020018083116103be57829003601f168201915b5050505050905086565b60015481565b60006002600083815260200190815260200160002090508060040160009054906101000a900460ff1615610454576040517f08c379a000000000000000000000000000000000000000000000000000000000815260040161044b90610ee0565b60405180910390fd5b600073ffffffffffffffffffffffffffffffffffffffff168160020160009054906101000a900473ffffffffffffffffffffffffffffffffffffffff1673ffffffffffffffffffffffffffffffffffffffff16036104e7576040517f08c379a00000000000000000000000000000000000000000000000000000000081526004016104de90610f4c565b60405180910390fd5b60008060009054906101000a900473ffffffffffffffffffffffffffffffffffffffff1673ffffffffffffffffffffffffffffffffffffffff166323b872dd338460020160009054906101000a900473ffffffffffffffffffffffffffffffffffffffff1685600301546040518463ffffffff1660e01b815260040161056f93929190610f6c565b6020604051808303816000875af115801561058e573d6000803e3d6000fd5b505050506040513d601f19601f820116820180604052508101906105b29190610fcf565b9050806105f4576040517f08c379a00000000000000000000000000000000000000000000000000000000081526004016105eb90611048565b60405180910390fd5b338260010160006101000a81548173ffffffffffffffffffffffffffffffffffffffff021916908373ffffffffffffffffffffffffffffffffffffffff16021790555060018260040160006101000a81548160ff0219169083151502179055507f4894261bc8821cd0e09696d6fa3e110c4034efc8f207633c1e1d16b7ea07fe7b83338460020160009054906101000a900473ffffffffffffffffffffffffffffffffffffffff1685600301546040516106b19493929190611068565b60405180910390a1505050565b6000604051905090565b600080fd5b600080fd5b600073ffffffffffffffffffffffffffffffffffffffff82169050919050565b60006106fd826106d2565b9050919050565b61070d816106f2565b811461071857600080fd5b50565b60008135905061072a81610704565b92915050565b6000819050919050565b61074381610730565b811461074e57600080fd5b50565b6000813590506107608161073a565b92915050565b600080fd5b600080fd5b6000601f19601f8301169050919050565b7f4e487b7100000000000000000000000000000000000000000000000000000000600052604160045260246000fd5b6107b982610770565b810181811067ffffffffffffffff821117156107d8576107d7610781565b5b80604052505050565b60006107eb6106be565b90506107f782826107b0565b919050565b600067ffffffffffffffff82111561081757610816610781565b5b61082082610770565b9050602081019050919050565b82818337600083830152505050565b600061084f61084a846107fc565b6107e1565b90508281526020810184848401111561086b5761086a61076b565b5b61087684828561082d565b509392505050565b600082601f83011261089357610892610766565b5b81356108a384826020860161083c565b91505092915050565b6000806000606084860312156108c5576108c46106c8565b5b60006108d38682870161071b565b93505060206108e486828701610751565b925050604084013567ffffffffffffffff811115610905576109046106cd565b5b6109118682870161087e565b9150509250925092565b6000819050919050565b600061094061093b610936846106d2565b61091b565b6106d2565b9050919050565b600061095282610925565b9050919050565b600061096482610947565b9050919050565b61097481610959565b82525050565b600060208201905061098f600083018461096b565b92915050565b6000602082840312156109ab576109aa6106c8565b5b60006109b984828501610751565b91505092915050565b6109cb81610730565b82525050565b6109da816106f2565b82525050565b60008115159050919050565b6109f5816109e0565b82525050565b600081519050919050565b600082825260208201905092915050565b60005b83811015610a35578082015181840152602081019050610a1a565b60008484015250505050565b6000610a4c826109fb565b610a568185610a06565b9350610a66818560208601610a17565b610a6f81610770565b840191505092915050565b600060c082019050610a8f60008301896109c2565b610a9c60208301886109d1565b610aa960408301876109d1565b610ab660608301866109c2565b610ac360808301856109ec565b81810360a0830152610ad58184610a41565b9050979650505050505050565b6000602082019050610af760008301846109c2565b92915050565b7f4e487b7100000000000000000000000000000000000000000000000000000000600052602260045260246000fd5b60006002820490506001821680610b4457607f821691505b602082108103610b5757610b56610afd565b5b50919050565b60008190508160005260206000209050919050565b60006020601f8301049050919050565b600082821b905092915050565b600060088302610bbf7fffffffffffffffffffffffffffffffffffffffffffffffffffffffffffffffff82610b82565b610bc98683610b82565b95508019841693508086168417925050509392505050565b6000610bfc610bf7610bf284610730565b61091b565b610730565b9050919050565b6000819050919050565b610c1683610be1565b610c2a610c2282610c03565b848454610b8f565b825550505050565b600090565b610c3f610c32565b610c4a818484610c0d565b505050565b5b81811015610c6e57610c63600082610c37565b600181019050610c50565b5050565b601f821115610cb357610c8481610b5d565b610c8d84610b72565b81016020851015610c9c578190505b610cb0610ca885610b72565b830182610c4f565b50505b505050565b600082821c905092915050565b6000610cd660001984600802610cb8565b1980831691505092915050565b6000610cef8383610cc5565b9150826002028217905092915050565b610d08826109fb565b67ffffffffffffffff811115610d2157610d20610781565b5b610d2b8254610b2c565b610d36828285610c72565b600060209050601f831160018114610d695760008415610d57578287015190505b610d618582610ce3565b865550610dc9565b601f198416610d7786610b5d565b60005b82811015610d9f57848901518255600182019150602085019450602081019050610d7a565b86831015610dbc5784890151610db8601f891682610cc5565b8355505b6001600288020188555050505b505050505050565b6000608082019050610de660008301876109c2565b610df360208301866109d1565b610e0060408301856109c2565b8181036060830152610e128184610a41565b905095945050505050565b7f4e487b7100000000000000000000000000000000000000000000000000000000600052601160045260246000fd5b6000610e5782610730565b91507fffffffffffffffffffffffffffffffffffffffffffffffffffffffffffffffff8203610e8957610e88610e1d565b5b600182019050919050565b7f416c726561647920706169640000000000000000000000000000000000000000600082015250565b6000610eca600c83610a06565b9150610ed582610e94565b602082019050919050565b60006020820190508181036000830152610ef981610ebd565b9050919050565b7f496e766f696365206e6f7420666f756e64000000000000000000000000000000600082015250565b6000610f36601183610a06565b9150610f4182610f00565b602082019050919050565b60006020820190508181036000830152610f6581610f29565b9050919050565b6000606082019050610f8160008301866109d1565b610f8e60208301856109d1565b610f9b60408301846109c2565b949350505050565b610fac816109e0565b8114610fb757600080fd5b50565b600081519050610fc981610fa3565b92915050565b600060208284031215610fe557610fe46106c8565b5b6000610ff384828501610fba565b91505092915050565b7f55534443207472616e73666572206661696c6564000000000000000000000000600082015250565b6000611032601483610a06565b915061103d82610ffc565b602082019050919050565b6000602082019050818103600083015261106181611025565b9050919050565b600060808201905061107d60008301876109c2565b61108a60208301866109d1565b61109760408301856109d1565b6110a460608301846109c2565b9594505050505056fea26469706673582212204352917bc6f211ad9889e035c78e6477acf424dd7a874f17386ff791c9605f4e64736f6c63430008140033",
  "linkReferences": {},
  "deployedLinkReferences": {}
}