{
  "_format": "hh-sol-artifact-1",
  "contractName": "ArcPayInvoice",
  "sourceName": "contracts/ArcPayInvoice.sol",
  "abi": [
    {
      "inputs": [
        {
          "internalType": "address",
          "name": "usdcAddress",
          "type": "address"
        }
      ],
      "stateMutability": "nonpayable",
      "type": "constructor"
    },
    {
      "anonymous": false,
      "inputs": [
        {
          "indexed": true,
          "internalType": "uint256",
          "name": "id",
          "type": "uint256"
        },
        {
          "indexed": true,
          "internalType": "address",
          "name": "merchant",
          "type": "address"
        },
        {
          "indexed": false,
          "internalType": "uint256",
          "name": "amount",
          "type": "uint256"
        },
        {
          "indexed": false,
          "internalType": "string",
          "name": "note",
          "type": "string"
        }
      ],
      "name": "InvoiceCreated",
      "type": "event"
    },
    {
      "anonymous": false,
      "inputs": [
        {
          "indexed": true,
          "internalType": "uint256",
          "name": "id",
          "type": "uint256"
        },
        {
          "indexed": true,
          "internalType": "address",
          "name": "payer",
          "type": "address"
        },
        {
          "indexed": true,
          "internalType": "address",
          "name": "merchant",
          "type": "address"
        },
        {
          "indexed": false,
          "internalType": "uint256",
          "name": "amount",
          "type": "uint256"
        },
        {
          "indexed": false,
          "internalType": "string",
          "name": "note",
          "type": "string"
        },
        {
          "indexed": false,
          "internalType": "string",
          "name": "memo",
          "type": "string"
        }
      ],
      "name": "InvoicePaid",
      "type": "event"
    },
    {
      "inputs": [
        {
          "internalType": "address",
          "name": "merchant",
          "type": "address"
        },
        {
          "internalType": "uint256",
          "name": "amount",
          "type": "uint256"
        },
        {
          "internalType": "string",
          "name": "note",
          "type": "string"
        }
      ],
      "name": "createInvoice",
      "outputs": [],
      "stateMutability": "nonpayable",
      "type": "function"
    },
    {
      "inputs": [
        {
          "internalType": "uint256",
          "name": "",
          "type": "uint256"
        }
      ],
      "name": "invoices",
      "outputs": [
        {
          "internalType": "uint256",
          "name": "id",
          "type": "uint256"
        },
        {
          "internalType": "address",
          "name": "payer",
          "type": "address"
        },
        {
          "internalType": "address",
          "name": "merchant",
          "type": "address"
        },
        {
          "internalType": "uint256",
          "name": "amount",
          "type": "uint256"
        },
        {
          "internalType": "bool",
          "name": "paid",
          "type": "bool"
        },
        {
          "internalType": "string",
          "name": "note",
          "type": "string"
        }
      ],
      "stateMutability": "view",
      "type": "function"
    },
    {
      "inputs": [],
      "name": "nextInvoiceId",
      "outputs": [
        {
          "internalType": "uint256",
          "name": "",
          "type": "uint256"
        }
      ],
      "stateMutability": "view",
      "type": "function"
    },
    {
      "inputs": [
        {
          "internalType": "uint256",
          "name": "invoiceId",
          "type": "uint256"
        }
      ],
      "name": "payInvoice",
      "outputs": [],
      "stateMutability": "nonpayable",
      "type": "function"
    },
    {
      "inputs": [],
      "name": "usdc",
      "outputs": [
        {
          "internalType": "contract IERC20",
          "name": "",
          "type": "address"
        }
      ],
      "stateMutability": "view",
      "type": "function"
    }
  ],
  "bytecode": "0x60806040523480156200001157600080fd5b5060405162001567380380620015678339818101604052810190620000379190620000e8565b806000806101000a81548173ffffffffffffffffffffffffffffffffffffffff021916908373ffffffffffffffffffffffffffffffffffffffff160217905550506200011a565b600080fd5b600073ffffffffffffffffffffffffffffffffffffffff82169050919050565b6000620000b08262000083565b9050919050565b620000c281620000a3565b8114620000ce57600080fd5b50565b600081519050620000e281620000b7565b92915050565b6000602082840312156200010157620001006200007e565b5b60006200011184828501620000d1565b91505092915050565b61143d806200012a6000396000f3fe608060405234801561001057600080fd5b50600436106100575760003560e01c80631494ff971461005c5780633e413bee146100785780634e6d1405146100965780636ff2a953146100cb578063ac60a6cd146100e9575b600080fd5b610076600480360381019061007191906109ca565b610105565b005b610080610376565b60405161008d9190610a98565b60405180910390f35b6100b060048036038101906100ab9190610ab3565b61039a565b6040516100c296959493929190610b98565b60405180910390f35b6100d36104ab565b6040516100e09190610c00565b60405180910390f35b61010360048036038101906100fe9190610ab3565b6104b1565b005b600073ffffffffffffffffffffffffffffffffffffffff168373ffffffffffffffffffffffffffffffffffffffff1603610174576040517f08c379a000000000000000000000000000000000000000000000000000000000815260040161016b90610c67565b60405180910390fd5b600082116101b7576040517f08c379a00000000000000000000000000000000000000000000000000000000081526004016101ae90610cd3565b60405180910390fd5b6040518060c001604052806001548152602001600073ffffffffffffffffffffffffffffffffffffffff1681526020018473ffffffffffffffffffffffffffffffffffffffff168152602001838152602001600015158152602001828152506002600060015481526020019081526020016000206000820151816000015560208201518160010160006101000a81548173ffffffffffffffffffffffffffffffffffffffff021916908373ffffffffffffffffffffffffffffffffffffffff16021790555060408201518160020160006101000a81548173ffffffffffffffffffffffffffffffffffffffff021916908373ffffffffffffffffffffffffffffffffffffffff1602179055506060820151816003015560808201518160040160006101000a81548160ff02191690831515021790555060a08201518160050190816103029190610ef5565b509050508273ffffffffffffffffffffffffffffffffffffffff166001547f01dcc7aec148735ad115574b756e3c73489f50d98d2b920e1b50f4b8d2eb8d188484604051610351929190610fc7565b60405180910390a36001600081548092919061036c90611026565b9190505550505050565b60008054906101000a900473ffffffffffffffffffffffffffffffffffffffff1681565b60026020528060005260406000206000915090508060000154908060010160009054906101000a900473ffffffffffffffffffffffffffffffffffffffff16908060020160009054906101000a900473ffffffffffffffffffffffffffffffffffffffff16908060030154908060040160009054906101000a900460ff169080600501805461042890610d22565b80601f016020809104026020016040519081016040528092919081815260200182805461045490610d22565b80156104a15780601f10610476576101008083540402835291602001916104a1565b820191906000526020600020905b81548152906001019060200180831161048457829003601f168201915b5050505050905086565b60015481565b6000600260008381526020019081526020016000209050600073ffffffffffffffffffffffffffffffffffffffff168160020160009054906101000a900473ffffffffffffffffffffffffffffffffffffffff1673ffffffffffffffffffffffffffffffffffffffff160361055b576040517f08c379a0000000000000000000000000000000000000000000000000000000008152600401610552906110ba565b60405180910390fd5b8060040160009054906101000a900460ff16156105ad576040517f08c379a00000000000000000000000000000000000000000000000000000000081526004016105a490611126565b60405180910390fd5b60008060009054906101000a900473ffffffffffffffffffffffffffffffffffffffff1673ffffffffffffffffffffffffffffffffffffffff166323b872dd338460020160009054906101000a900473ffffffffffffffffffffffffffffffffffffffff1685600301546040518463ffffffff1660e01b815260040161063593929190611146565b6020604051808303816000875af1158015610654573d6000803e3d6000fd5b505050506040513d601f19601f8201168201806040525081019061067891906111a9565b9050806106ba576040517f08c379a00000000000000000000000000000000000000000000000000000000081526004016106b190611222565b60405180910390fd5b338260010160006101000a81548173ffffffffffffffffffffffffffffffffffffffff021916908373ffffffffffffffffffffffffffffffffffffffff16021790555060018260040160006101000a81548160ff021916908315150217905550600082600501604051602001610730919061131c565b60405160208183030381529060405290508260020160009054906101000a900473ffffffffffffffffffffffffffffffffffffffff1673ffffffffffffffffffffffffffffffffffffffff163373ffffffffffffffffffffffffffffffffffffffff16857fd6927085c1ec3de4128e6203532aa69ad0b41b3ea2b156d837a9f7525cd1c7d8866003015487600501866040516107ce939291906113c2565b60405180910390a450505050565b6000604051905090565b600080fd5b600080fd5b600073ffffffffffffffffffffffffffffffffffffffff82169050919050565b600061081b826107f0565b9050919050565b61082b81610810565b811461083657600080fd5b50565b60008135905061084881610822565b92915050565b6000819050919050565b6108618161084e565b811461086c57600080fd5b50565b60008135905061087e81610858565b92915050565b600080fd5b600080fd5b6000601f19601f8301169050919050565b7f4e487b7100000000000000000000000000000000000000000000000000000000600052604160045260246000fd5b6108d78261088e565b810181811067ffffffffffffffff821117156108f6576108f561089f565b5b80604052505050565b60006109096107dc565b905061091582826108ce565b919050565b600067ffffffffffffffff8211156109355761093461089f565b5b61093e8261088e565b9050602081019050919050565b82818337600083830152505050565b600061096d6109688461091a565b6108ff565b90508281526020810184848401111561098957610988610889565b5b61099484828561094b565b509392505050565b600082601f8301126109b1576109b0610884565b5b81356109c184826020860161095a565b91505092915050565b6000806000606084860312156109e3576109e26107e6565b5b60006109f186828701610839565b9350506020610a028682870161086f565b925050604084013567ffffffffffffffff811115610a2357610a226107eb565b5b610a2f8682870161099c565b9150509250925092565b6000819050919050565b6000610a5e610a59610a54846107f0565b610a39565b6107f0565b9050919050565b6000610a7082610a43565b9050919050565b6000610a8282610a65565b9050919050565b610a9281610a77565b82525050565b6000602082019050610aad6000830184610a89565b92915050565b600060208284031215610ac957610ac86107e6565b5b6000610ad78482850161086f565b91505092915050565b610ae98161084e565b82525050565b610af881610810565b82525050565b60008115159050919050565b610b1381610afe565b82525050565b600081519050919050565b600082825260208201905092915050565b60005b83811015610b53578082015181840152602081019050610b38565b60008484015250505050565b6000610b6a82610b19565b610b748185610b24565b9350610b84818560208601610b35565b610b8d8161088e565b840191505092915050565b600060c082019050610bad6000830189610ae0565b610bba6020830188610aef565b610bc76040830187610aef565b610bd46060830186610ae0565b610be16080830185610b0a565b81810360a0830152610bf38184610b5f565b9050979650505050505050565b6000602082019050610c156000830184610ae0565b92915050565b7f496e76616c6964206d65726368616e7400000000000000000000000000000000600082015250565b6000610c51601083610b24565b9150610c5c82610c1b565b602082019050919050565b60006020820190508181036000830152610c8081610c44565b9050919050565b7f496e76616c696420616d6f756e74000000000000000000000000000000000000600082015250565b6000610cbd600e83610b24565b9150610cc882610c87565b602082019050919050565b60006020820190508181036000830152610cec81610cb0565b9050919050565b7f4e487b7100000000000000000000000000000000000000000000000000000000600052602260045260246000fd5b60006002820490506001821680610d3a57607f821691505b602082108103610d4d57610d4c610cf3565b5b50919050565b60008190508160005260206000209050919050565b60006020601f8301049050919050565b600082821b905092915050565b600060088302610db57fffffffffffffffffffffffffffffffffffffffffffffffffffffffffffffffff82610d78565b610dbf8683610d78565b95508019841693508086168417925050509392505050565b6000610df2610ded610de88461084e565b610a39565b61084e565b9050919050565b6000819050919050565b610e0c83610dd7565b610e20610e1882610df9565b848454610d85565b825550505050565b600090565b610e35610e28565b610e40818484610e03565b505050565b5b81811015610e6457610e59600082610e2d565b600181019050610e46565b5050565b601f821115610ea957610e7a81610d53565b610e8384610d68565b81016020851015610e92578190505b610ea6610e9e85610d68565b830182610e45565b50505b505050565b600082821c905092915050565b6000610ecc60001984600802610eae565b1980831691505092915050565b6000610ee58383610ebb565b9150826002028217905092915050565b610efe82610b19565b67ffffffffffffffff811115610f1757610f1661089f565b5b610f218254610d22565b610f2c828285610e68565b600060209050601f831160018114610f5f5760008415610f4d578287015190505b610f578582610ed9565b865550610fbf565b601f198416610f6d86610d53565b60005b82811015610f9557848901518255600182019150602085019450602081019050610f70565b86831015610fb25784890151610fae601f891682610ebb565b8355505b6001600288020188555050505b505050505050565b6000604082019050610fdc6000830185610ae0565b8181036020830152610fee8184610b5f565b90509392505050565b7f4e487b7100000000000000000000000000000000000000000000000000000000600052601160045260246000fd5b60006110318261084e565b91507fffffffffffffffffffffffffffffffffffffffffffffffffffffffffffffffff820361106357611062610ff7565b5b600182019050919050565b7f496e766f696365206e6f7420666f756e64000000000000000000000000000000600082015250565b60006110a4601183610b24565b91506110af8261106e565b602082019050919050565b600060208201905081810360008301526110d381611097565b9050919050565b7f416c726561647920706169640000000000000000000000000000000000000000600082015250565b6000611110600c83610b24565b915061111b826110da565b602082019050919050565b6000602082019050818103600083015261113f81611103565b9050919050565b600060608201905061115b6000830186610aef565b6111686020830185610aef565b6111756040830184610ae0565b949350505050565b61118681610afe565b811461119157600080fd5b50565b6000815190506111a38161117d565b92915050565b6000602082840312156111bf576111be6107e6565b5b60006111cd84828501611194565b91505092915050565b7f55534443207472616e73666572206661696c6564000000000000000000000000600082015250565b600061120c601483610b24565b9150611217826111d6565b602082019050919050565b6000602082019050818103600083015261123b816111ff565b9050919050565b600081905092915050565b7f41726350617920696e766f696365207061796d656e743a200000000000000000600082015250565b6000611283601883611242565b915061128e8261124d565b601882019050919050565b600081546112a681610d22565b6112b08186611242565b945060018216600081146112cb57600181146112e057611313565b60ff1983168652811515820286019350611313565b6112e985610d53565b60005b8381101561130b578154818901526001820191506020810190506112ec565b838801955050505b50505092915050565b600061132782611276565b91506113338284611299565b915081905092915050565b6000815461134b81610d22565b6113558186610b24565b945060018216600081146113705760018114611386576113b9565b60ff1983168652811515602002860193506113b9565b61138f85610d53565b60005b838110156113b157815481890152600182019150602081019050611392565b808801955050505b50505092915050565b60006060820190506113d76000830186610ae0565b81810360208301526113e9818561133e565b905081810360408301526113fd8184610b5f565b905094935050505056fea26469706673582212203c3addf7714ac5e52717fcbd7040a320a7e4b5487f386eb69d75451d5c2558f364736f6c63430008140033",
  "linkReferences": {},
  "deployedLinkReferences": {}
}